{
  "contractName": "Airdrop",
  "abi": [
    {
      "inputs": [
        {
          "internalType": "address",
          "name": "_token",
          "type": "address"
        }
      ],
      "stateMutability": "nonpayable",
      "type": "constructor"
    },
    {
      "anonymous": false,
      "inputs": [
        {
          "indexed": false,
          "internalType": "address",
          "name": "recipient",
          "type": "address"
        },
        {
          "indexed": false,
          "internalType": "uint256",
          "name": "amount",
          "type": "uint256"
        },
        {
          "indexed": false,
          "internalType": "uint256",
          "name": "date",
          "type": "uint256"
        }
      ],
      "name": "AirdropProcessed",
      "type": "event"
    },
    {
      "inputs": [],
      "name": "admin",
      "outputs": [
        {
          "internalType": "address",
          "name": "",
          "type": "address"
        }
      ],
      "stateMutability": "view",
      "type": "function"
    },
    {
      "inputs": [],
      "name": "currentAirdropAmount",
      "outputs": [
        {
          "internalType": "uint256",
          "name": "",
          "type": "uint256"
        }
      ],
      "stateMutability": "view",
      "type": "function"
    },
    {
      "inputs": [],
      "name": "maxAirdropAmount",
      "outputs": [
        {
          "internalType": "uint256",
          "name": "",
          "type": "uint256"
        }
      ],
      "stateMutability": "view",
      "type": "function"
    },
    {
      "inputs": [
        {
          "internalType": "address",
          "name": "",
          "type": "address"
        }
      ],
      "name": "processedAirdrops",
      "outputs": [
        {
          "internalType": "bool",
          "name": "",
          "type": "bool"
        }
      ],
      "stateMutability": "view",
      "type": "function"
    },
    {
      "inputs": [],
      "name": "token",
      "outputs": [
        {
          "internalType": "contract IERC20",
          "name": "",
          "type": "address"
        }
      ],
      "stateMutability": "view",
      "type": "function"
    },
    {
      "inputs": [
        {
          "internalType": "address",
          "name": "newAdmin",
          "type": "address"
        }
      ],
      "name": "updateAdmin",
      "outputs": [],
      "stateMutability": "nonpayable",
      "type": "function"
    },
    {
      "inputs": [
        {
          "internalType": "address",
          "name": "recipient",
          "type": "address"
        },
        {
          "internalType": "uint256",
          "name": "amount",
          "type": "uint256"
        },
        {
          "internalType": "bytes",
          "name": "signature",
          "type": "bytes"
        }
      ],
      "name": "getTokens",
      "outputs": [],
      "stateMutability": "nonpayable",
      "type": "function"
    }
  ],
  "bytecode": "0x60806040526103e860045534801561001657600080fd5b50604051610f5b380380610f5b833981810160405281019061003891906100d4565b336000806101000a81548173ffffffffffffffffffffffffffffffffffffffff021916908373ffffffffffffffffffffffffffffffffffffffff16021790555080600260006101000a81548173ffffffffffffffffffffffffffffffffffffffff021916908373ffffffffffffffffffffffffffffffffffffffff16021790555050610146565b6000815190506100ce8161012f565b92915050565b6000602082840312156100e657600080fd5b60006100f4848285016100bf565b91505092915050565b60006101088261010f565b9050919050565b600073ffffffffffffffffffffffffffffffffffffffff82169050919050565b610138816100fd565b811461014357600080fd5b50565b610e06806101556000396000f3fe608060405234801561001057600080fd5b506004361061007d5760003560e01c80637424bab11161005b5780637424bab1146100ec578063e2f273bd1461010a578063f851a44014610126578063fc0c546a146101445761007d565b80631fcd07d41461008257806323efeb121461009e57806332ffa783146100bc575b600080fd5b61009c6004803603810190610097919061078f565b610162565b005b6100a66104ae565b6040516100b39190610b3a565b60405180910390f35b6100d660048036038101906100d19190610766565b6104b4565b6040516100e39190610a3f565b60405180910390f35b6100f46104d4565b6040516101019190610b3a565b60405180910390f35b610124600480360381019061011f9190610766565b6104da565b005b61012e6105ab565b60405161013b91906109c4565b60405180910390f35b61014c6105cf565b6040516101599190610a9f565b60405180910390f35b6000610195858560405160200161017a929190610972565b604051602081830303815290604052805190602001206105f5565b905060008054906101000a900473ffffffffffffffffffffffffffffffffffffffff1673ffffffffffffffffffffffffffffffffffffffff1661021c8285858080601f016020809104026020016040519081016040528093929190818152602001838380828437600081840152601f19601f82011690508083019250505050505050610625565b73ffffffffffffffffffffffffffffffffffffffff1614610272576040517f08c379a000000000000000000000000000000000000000000000000000000000815260040161026990610b1a565b60405180910390fd5b60001515600160008773ffffffffffffffffffffffffffffffffffffffff1673ffffffffffffffffffffffffffffffffffffffff16815260200190815260200160002060009054906101000a900460ff16151514610305576040517f08c379a00000000000000000000000000000000000000000000000000000000081526004016102fc90610ada565b60405180910390fd5b600454600354111561034c576040517f08c379a000000000000000000000000000000000000000000000000000000000815260040161034390610afa565b60405180910390fd5b60018060008773ffffffffffffffffffffffffffffffffffffffff1673ffffffffffffffffffffffffffffffffffffffff16815260200190815260200160002060006101000a81548160ff02191690831515021790555083600360008282546103b59190610b71565b92505081905550600260009054906101000a900473ffffffffffffffffffffffffffffffffffffffff1673ffffffffffffffffffffffffffffffffffffffff1663a9059cbb86866040518363ffffffff1660e01b81526004016104199291906109df565b602060405180830381600087803b15801561043357600080fd5b505af1158015610447573d6000803e3d6000fd5b505050506040513d601f19601f8201168201806040525081019061046b91906107fb565b507fc0312d3bf25e86c787fa77f4d038213e428dc722e16d38ca9719e987d20f7c7c85854260405161049f93929190610a08565b60405180910390a15050505050565b60045481565b60016020528060005260406000206000915054906101000a900460ff1681565b60035481565b60008054906101000a900473ffffffffffffffffffffffffffffffffffffffff1673ffffffffffffffffffffffffffffffffffffffff163373ffffffffffffffffffffffffffffffffffffffff1614610568576040517f08c379a000000000000000000000000000000000000000000000000000000000815260040161055f90610aba565b60405180910390fd5b806000806101000a81548173ffffffffffffffffffffffffffffffffffffffff021916908373ffffffffffffffffffffffffffffffffffffffff16021790555050565b60008054906101000a900473ffffffffffffffffffffffffffffffffffffffff1681565b600260009054906101000a900473ffffffffffffffffffffffffffffffffffffffff1681565b600081604051602001610608919061099e565b604051602081830303815290604052805190602001209050919050565b6000806000806106348561069a565b809350819450829550505050600186848484604051600081526020016040526040516106639493929190610a5a565b6020604051602081039080840390855afa158015610685573d6000803e3d6000fd5b50505060206040510351935050505092915050565b600080600060418451146106ad57600080fd5b60008060006020870151925060408701519150606087015160001a90508083839550955095505050509193909250565b6000813590506106ec81610d8b565b92915050565b60008151905061070181610da2565b92915050565b60008083601f84011261071957600080fd5b8235905067ffffffffffffffff81111561073257600080fd5b60208301915083600182028301111561074a57600080fd5b9250929050565b60008135905061076081610db9565b92915050565b60006020828403121561077857600080fd5b6000610786848285016106dd565b91505092915050565b600080600080606085870312156107a557600080fd5b60006107b3878288016106dd565b94505060206107c487828801610751565b935050604085013567ffffffffffffffff8111156107e157600080fd5b6107ed87828801610707565b925092505092959194509250565b60006020828403121561080d57600080fd5b600061081b848285016106f2565b91505092915050565b61082d81610bc7565b82525050565b61084461083f82610bc7565b610c4a565b82525050565b61085381610bd9565b82525050565b61086281610be5565b82525050565b61087961087482610be5565b610c5c565b82525050565b61088881610c26565b82525050565b600061089b601c83610b66565b91506108a682610cbe565b601c82019050919050565b60006108be600a83610b55565b91506108c982610ce7565b602082019050919050565b60006108e1601983610b55565b91506108ec82610d10565b602082019050919050565b6000610904601d83610b55565b915061090f82610d39565b602082019050919050565b6000610927600f83610b55565b915061093282610d62565b602082019050919050565b61094681610c0f565b82525050565b61095d61095882610c0f565b610c78565b82525050565b61096c81610c19565b82525050565b600061097e8285610833565b60148201915061098e828461094c565b6020820191508190509392505050565b60006109a98261088e565b91506109b58284610868565b60208201915081905092915050565b60006020820190506109d96000830184610824565b92915050565b60006040820190506109f46000830185610824565b610a01602083018461093d565b9392505050565b6000606082019050610a1d6000830186610824565b610a2a602083018561093d565b610a37604083018461093d565b949350505050565b6000602082019050610a54600083018461084a565b92915050565b6000608082019050610a6f6000830187610859565b610a7c6020830186610963565b610a896040830185610859565b610a966060830184610859565b95945050505050565b6000602082019050610ab4600083018461087f565b92915050565b60006020820190508181036000830152610ad3816108b1565b9050919050565b60006020820190508181036000830152610af3816108d4565b9050919050565b60006020820190508181036000830152610b13816108f7565b9050919050565b60006020820190508181036000830152610b338161091a565b9050919050565b6000602082019050610b4f600083018461093d565b92915050565b600082825260208201905092915050565b600081905092915050565b6000610b7c82610c0f565b9150610b8783610c0f565b9250827fffffffffffffffffffffffffffffffffffffffffffffffffffffffffffffffff03821115610bbc57610bbb610c82565b5b828201905092915050565b6000610bd282610bef565b9050919050565b60008115159050919050565b6000819050919050565b600073ffffffffffffffffffffffffffffffffffffffff82169050919050565b6000819050919050565b600060ff82169050919050565b6000610c3182610c38565b9050919050565b6000610c4382610bef565b9050919050565b6000610c5582610c66565b9050919050565b6000819050919050565b6000610c7182610cb1565b9050919050565b6000819050919050565b7f4e487b7100000000000000000000000000000000000000000000000000000000600052601160045260246000fd5b60008160601b9050919050565b7f19457468657265756d205369676e6564204d6573736167653a0a333200000000600082015250565b7f6f6e6c792061646d696e00000000000000000000000000000000000000000000600082015250565b7f61697264726f7020616c72656164792070726f63657373656400000000000000600082015250565b7f61697264726f707065642031303025206f662074686520746f6b656e73000000600082015250565b7f77726f6e67207369676e61747572650000000000000000000000000000000000600082015250565b610d9481610bc7565b8114610d9f57600080fd5b50565b610dab81610bd9565b8114610db657600080fd5b50565b610dc281610c0f565b8114610dcd57600080fd5b5056fea2646970667358221220616e24a3edbe2c37c9c67ef7fbe1a7245a9ef15f5ad56bcb472b8eed28ada5f164736f6c63430008030033",
  "immutableReferences": {},
  "source": "pragma solidity ^0.8.3;\n\nimport '@openzeppelin/contracts/token/ERC20/ERC20.sol';\n\ncontract Airdrop {\n  address public admin;\n  mapping(address => bool) public processedAirdrops;\n  IERC20 public token;\n  uint public currentAirdropAmount;\n  uint public maxAirdropAmount = 1000;\n\n  event AirdropProcessed(\n    address recipient,\n    uint amount,\n    uint date\n  );\n\n  constructor(address _token) {\n    admin = msg.sender;\n    token = IERC20(_token);\n  }\n\n  function updateAdmin(address newAdmin) external {\n    require(msg.sender == admin, 'only admin');\n    admin = newAdmin;\n  }\n\n  function getTokens(\n    address recipient,\n    uint amount,\n    bytes calldata signature\n  ) external {\n    bytes32 message = prefixed(keccak256(abi.encodePacked(\n      recipient, \n      amount\n    )));\n    require(recoverSigner(message, signature) == admin , 'wrong signature');\n    require(processedAirdrops[recipient] == false, 'airdrop already processed');\n    require(currentAirdropAmount <= maxAirdropAmount, 'airdropped 100% of the tokens');\n    processedAirdrops[recipient] = true;\n    currentAirdropAmount += amount;\n    token.transfer(recipient, amount);\n    emit AirdropProcessed(\n      recipient,\n      amount,\n      block.timestamp\n    );\n  }\n\n  function prefixed(bytes32 hash) internal pure returns (bytes32) {\n    return keccak256(abi.encodePacked(\n      '\\x19Ethereum Signed Message:\\n32', \n      hash\n    ));\n  }\n\n  function recoverSigner(bytes32 message, bytes memory sig)\n    internal\n    pure\n    returns (address)\n  {\n    uint8 v;\n    bytes32 r;\n    bytes32 s;\n  \n    (v, r, s) = splitSignature(sig);\n  \n    return ecrecover(message, v, r, s);\n  }\n\n  function splitSignature(bytes memory sig)\n    internal\n    pure\n    returns (uint8, bytes32, bytes32)\n  {\n    require(sig.length == 65);\n  \n    bytes32 r;\n    bytes32 s;\n    uint8 v;\n  \n    assembly {\n        // first 32 bytes, after the length prefix\n        r := mload(add(sig, 32))\n        // second 32 bytes\n        s := mload(add(sig, 64))\n        // final byte (first byte of the next 32 bytes)\n        v := byte(0, mload(add(sig, 96)))\n    }\n  \n    return (v, r, s);\n  }\n}\n",
  "sourcePath": "/mnt/fonts/uniweeks/github/token-contract/contracts/Airdrop.sol",
  "compiler": {
    "name": "solc",
    "version": "0.8.3+commit.8d00100c.Emscripten.clang"
  },
  "schemaVersion": "3.3.4",
  "updatedAt": "2021-04-18T21:31:23.131Z",
  "devdoc": {
    "kind": "dev",
    "methods": {},
    "version": 1
  },
  "userdoc": {
    "kind": "user",
    "methods": {},
    "version": 1
  }
}